{
  "_format": "hh-sol-artifact-1",
  "contractName": "StakingRewards",
  "sourceName": "contracts/StakingRewards.sol",
  "abi": [
    {
      "inputs": [
        {
          "internalType": "address",
          "name": "_stakingToken",
          "type": "address"
        },
        {
          "internalType": "address",
          "name": "_rewardToken",
          "type": "address"
        }
      ],
      "stateMutability": "nonpayable",
      "type": "constructor"
    },
    {
      "inputs": [
        {
          "internalType": "address",
          "name": "",
          "type": "address"
        }
      ],
      "name": "balances",
      "outputs": [
        {
          "internalType": "uint256",
          "name": "",
          "type": "uint256"
        }
      ],
      "stateMutability": "view",
      "type": "function"
    },
    {
      "inputs": [],
      "name": "claimReward",
      "outputs": [],
      "stateMutability": "nonpayable",
      "type": "function"
    },
    {
      "inputs": [
        {
          "internalType": "address",
          "name": "account",
          "type": "address"
        }
      ],
      "name": "earned",
      "outputs": [
        {
          "internalType": "uint256",
          "name": "",
          "type": "uint256"
        }
      ],
      "stateMutability": "view",
      "type": "function"
    },
    {
      "inputs": [],
      "name": "lastUpdateTime",
      "outputs": [
        {
          "internalType": "uint256",
          "name": "",
          "type": "uint256"
        }
      ],
      "stateMutability": "view",
      "type": "function"
    },
    {
      "inputs": [],
      "name": "rewardPerToken",
      "outputs": [
        {
          "internalType": "uint256",
          "name": "",
          "type": "uint256"
        }
      ],
      "stateMutability": "view",
      "type": "function"
    },
    {
      "inputs": [],
      "name": "rewardPerTokenStored",
      "outputs": [
        {
          "internalType": "uint256",
          "name": "",
          "type": "uint256"
        }
      ],
      "stateMutability": "view",
      "type": "function"
    },
    {
      "inputs": [],
      "name": "rewardRate",
      "outputs": [
        {
          "internalType": "uint256",
          "name": "",
          "type": "uint256"
        }
      ],
      "stateMutability": "view",
      "type": "function"
    },
    {
      "inputs": [],
      "name": "rewardToken",
      "outputs": [
        {
          "internalType": "contract IERC20",
          "name": "",
          "type": "address"
        }
      ],
      "stateMutability": "view",
      "type": "function"
    },
    {
      "inputs": [
        {
          "internalType": "address",
          "name": "",
          "type": "address"
        }
      ],
      "name": "rewards",
      "outputs": [
        {
          "internalType": "uint256",
          "name": "",
          "type": "uint256"
        }
      ],
      "stateMutability": "view",
      "type": "function"
    },
    {
      "inputs": [
        {
          "internalType": "uint256",
          "name": "amount",
          "type": "uint256"
        }
      ],
      "name": "stake",
      "outputs": [],
      "stateMutability": "nonpayable",
      "type": "function"
    },
    {
      "inputs": [],
      "name": "stakingToken",
      "outputs": [
        {
          "internalType": "contract IERC20",
          "name": "",
          "type": "address"
        }
      ],
      "stateMutability": "view",
      "type": "function"
    },
    {
      "inputs": [],
      "name": "totalSupply",
      "outputs": [
        {
          "internalType": "uint256",
          "name": "",
          "type": "uint256"
        }
      ],
      "stateMutability": "view",
      "type": "function"
    },
    {
      "inputs": [
        {
          "internalType": "address",
          "name": "",
          "type": "address"
        }
      ],
      "name": "userRewardPerTokenPaid",
      "outputs": [
        {
          "internalType": "uint256",
          "name": "",
          "type": "uint256"
        }
      ],
      "stateMutability": "view",
      "type": "function"
    },
    {
      "inputs": [
        {
          "internalType": "uint256",
          "name": "amount",
          "type": "uint256"
        }
      ],
      "name": "withdraw",
      "outputs": [],
      "stateMutability": "nonpayable",
      "type": "function"
    }
  ],
  "bytecode": "0x6080604052670de0b6b3a76400006002553480156200001c575f80fd5b506040516200111e3803806200111e833981810160405281019062000042919062000135565b815f806101000a81548173ffffffffffffffffffffffffffffffffffffffff021916908373ffffffffffffffffffffffffffffffffffffffff1602179055508060015f6101000a81548173ffffffffffffffffffffffffffffffffffffffff021916908373ffffffffffffffffffffffffffffffffffffffff1602179055504260038190555050506200017a565b5f80fd5b5f73ffffffffffffffffffffffffffffffffffffffff82169050919050565b5f620000ff82620000d4565b9050919050565b6200011181620000f3565b81146200011c575f80fd5b50565b5f815190506200012f8162000106565b92915050565b5f80604083850312156200014e576200014d620000d0565b5b5f6200015d858286016200011f565b925050602062000170858286016200011f565b9150509250929050565b610f9680620001885f395ff3fe608060405234801561000f575f80fd5b50600436106100e7575f3560e01c80638b8763471161008a578063c8f33c9111610064578063c8f33c9114610247578063cd3daf9d14610265578063df136d6514610283578063f7c618c1146102a1576100e7565b80638b876347146101f1578063a694fc3a14610221578063b88a802f1461023d576100e7565b806327e235e3116100c657806327e235e3146101695780632e1a7d4d1461019957806372f702f3146101b55780637b0a47ee146101d3576100e7565b80628cc262146100eb5780630700037d1461011b57806318160ddd1461014b575b5f80fd5b61010560048036038101906101009190610b5f565b6102bf565b6040516101129190610ba2565b60405180910390f35b61013560048036038101906101309190610b5f565b6103ba565b6040516101429190610ba2565b60405180910390f35b6101536103cf565b6040516101609190610ba2565b60405180910390f35b610183600480360381019061017e9190610b5f565b6103d5565b6040516101909190610ba2565b60405180910390f35b6101b360048036038101906101ae9190610be5565b6103ea565b005b6101bd61060e565b6040516101ca9190610c6b565b60405180910390f35b6101db610631565b6040516101e89190610ba2565b60405180910390f35b61020b60048036038101906102069190610b5f565b610637565b6040516102189190610ba2565b60405180910390f35b61023b60048036038101906102369190610be5565b61064c565b005b610245610872565b005b61024f610a6e565b60405161025c9190610ba2565b60405180910390f35b61026d610a74565b60405161027a9190610ba2565b60405180910390f35b61028b610ad6565b6040516102989190610ba2565b60405180910390f35b6102a9610adc565b6040516102b69190610c6b565b60405180910390f35b5f60065f8373ffffffffffffffffffffffffffffffffffffffff1673ffffffffffffffffffffffffffffffffffffffff1681526020019081526020015f2054670de0b6b3a764000060055f8573ffffffffffffffffffffffffffffffffffffffff1673ffffffffffffffffffffffffffffffffffffffff1681526020019081526020015f205461034d610a74565b6103579190610cb1565b60075f8673ffffffffffffffffffffffffffffffffffffffff1673ffffffffffffffffffffffffffffffffffffffff1681526020019081526020015f205461039f9190610ce4565b6103a99190610d52565b6103b39190610d82565b9050919050565b6006602052805f5260405f205f915090505481565b60085481565b6007602052805f5260405f205f915090505481565b336103f3610a74565b600481905550426003819055505f73ffffffffffffffffffffffffffffffffffffffff168173ffffffffffffffffffffffffffffffffffffffff16146104c25761043c816102bf565b60065f8373ffffffffffffffffffffffffffffffffffffffff1673ffffffffffffffffffffffffffffffffffffffff1681526020019081526020015f208190555060045460055f8373ffffffffffffffffffffffffffffffffffffffff1673ffffffffffffffffffffffffffffffffffffffff1681526020019081526020015f20819055505b5f8211610504576040517f08c379a00000000000000000000000000000000000000000000000000000000081526004016104fb90610e0f565b60405180910390fd5b8160085f8282546105159190610cb1565b925050819055508160075f3373ffffffffffffffffffffffffffffffffffffffff1673ffffffffffffffffffffffffffffffffffffffff1681526020019081526020015f205f8282546105689190610cb1565b925050819055505f8054906101000a900473ffffffffffffffffffffffffffffffffffffffff1673ffffffffffffffffffffffffffffffffffffffff1663a9059cbb33846040518363ffffffff1660e01b81526004016105c9929190610e3c565b6020604051808303815f875af11580156105e5573d5f803e3d5ffd5b505050506040513d601f19601f820116820180604052508101906106099190610e98565b505050565b5f8054906101000a900473ffffffffffffffffffffffffffffffffffffffff1681565b60025481565b6005602052805f5260405f205f915090505481565b33610655610a74565b600481905550426003819055505f73ffffffffffffffffffffffffffffffffffffffff168173ffffffffffffffffffffffffffffffffffffffff16146107245761069e816102bf565b60065f8373ffffffffffffffffffffffffffffffffffffffff1673ffffffffffffffffffffffffffffffffffffffff1681526020019081526020015f208190555060045460055f8373ffffffffffffffffffffffffffffffffffffffff1673ffffffffffffffffffffffffffffffffffffffff1681526020019081526020015f20819055505b5f8211610766576040517f08c379a000000000000000000000000000000000000000000000000000000000815260040161075d90610f0d565b60405180910390fd5b8160085f8282546107779190610d82565b925050819055508160075f3373ffffffffffffffffffffffffffffffffffffffff1673ffffffffffffffffffffffffffffffffffffffff1681526020019081526020015f205f8282546107ca9190610d82565b925050819055505f8054906101000a900473ffffffffffffffffffffffffffffffffffffffff1673ffffffffffffffffffffffffffffffffffffffff166323b872dd3330856040518463ffffffff1660e01b815260040161082d93929190610f2b565b6020604051808303815f875af1158015610849573d5f803e3d5ffd5b505050506040513d601f19601f8201168201806040525081019061086d9190610e98565b505050565b3361087b610a74565b600481905550426003819055505f73ffffffffffffffffffffffffffffffffffffffff168173ffffffffffffffffffffffffffffffffffffffff161461094a576108c4816102bf565b60065f8373ffffffffffffffffffffffffffffffffffffffff1673ffffffffffffffffffffffffffffffffffffffff1681526020019081526020015f208190555060045460055f8373ffffffffffffffffffffffffffffffffffffffff1673ffffffffffffffffffffffffffffffffffffffff1681526020019081526020015f20819055505b5f60065f3373ffffffffffffffffffffffffffffffffffffffff1673ffffffffffffffffffffffffffffffffffffffff1681526020019081526020015f205490505f60065f3373ffffffffffffffffffffffffffffffffffffffff1673ffffffffffffffffffffffffffffffffffffffff1681526020019081526020015f208190555060015f9054906101000a900473ffffffffffffffffffffffffffffffffffffffff1673ffffffffffffffffffffffffffffffffffffffff1663a9059cbb33836040518363ffffffff1660e01b8152600401610a29929190610e3c565b6020604051808303815f875af1158015610a45573d5f803e3d5ffd5b505050506040513d601f19601f82011682018060405250810190610a699190610e98565b505050565b60035481565b5f8060085403610a88576004549050610ad3565b600854670de0b6b3a764000060025460035442610aa59190610cb1565b610aaf9190610ce4565b610ab99190610ce4565b610ac39190610d52565b600454610ad09190610d82565b90505b90565b60045481565b60015f9054906101000a900473ffffffffffffffffffffffffffffffffffffffff1681565b5f80fd5b5f73ffffffffffffffffffffffffffffffffffffffff82169050919050565b5f610b2e82610b05565b9050919050565b610b3e81610b24565b8114610b48575f80fd5b50565b5f81359050610b5981610b35565b92915050565b5f60208284031215610b7457610b73610b01565b5b5f610b8184828501610b4b565b91505092915050565b5f819050919050565b610b9c81610b8a565b82525050565b5f602082019050610bb55f830184610b93565b92915050565b610bc481610b8a565b8114610bce575f80fd5b50565b5f81359050610bdf81610bbb565b92915050565b5f60208284031215610bfa57610bf9610b01565b5b5f610c0784828501610bd1565b91505092915050565b5f819050919050565b5f610c33610c2e610c2984610b05565b610c10565b610b05565b9050919050565b5f610c4482610c19565b9050919050565b5f610c5582610c3a565b9050919050565b610c6581610c4b565b82525050565b5f602082019050610c7e5f830184610c5c565b92915050565b7f4e487b71000000000000000000000000000000000000000000000000000000005f52601160045260245ffd5b5f610cbb82610b8a565b9150610cc683610b8a565b9250828203905081811115610cde57610cdd610c84565b5b92915050565b5f610cee82610b8a565b9150610cf983610b8a565b9250828202610d0781610b8a565b91508282048414831517610d1e57610d1d610c84565b5b5092915050565b7f4e487b71000000000000000000000000000000000000000000000000000000005f52601260045260245ffd5b5f610d5c82610b8a565b9150610d6783610b8a565b925082610d7757610d76610d25565b5b828204905092915050565b5f610d8c82610b8a565b9150610d9783610b8a565b9250828201905080821115610daf57610dae610c84565b5b92915050565b5f82825260208201905092915050565b7f43616e6e6f7420776974686472617720300000000000000000000000000000005f82015250565b5f610df9601183610db5565b9150610e0482610dc5565b602082019050919050565b5f6020820190508181035f830152610e2681610ded565b9050919050565b610e3681610b24565b82525050565b5f604082019050610e4f5f830185610e2d565b610e5c6020830184610b93565b9392505050565b5f8115159050919050565b610e7781610e63565b8114610e81575f80fd5b50565b5f81519050610e9281610e6e565b92915050565b5f60208284031215610ead57610eac610b01565b5b5f610eba84828501610e84565b91505092915050565b7f43616e6e6f74207374616b6520300000000000000000000000000000000000005f82015250565b5f610ef7600e83610db5565b9150610f0282610ec3565b602082019050919050565b5f6020820190508181035f830152610f2481610eeb565b9050919050565b5f606082019050610f3e5f830186610e2d565b610f4b6020830185610e2d565b610f586040830184610b93565b94935050505056fea26469706673582212206075d635cf76f89538658c339f2adec76a6721346eab2cc7f2c4367e7d35432664736f6c63430008140033",
  "linkReferences": {},
  "deployedLinkReferences": {}
}